{
  "abi": [
    {
      "inputs": [],
      "name": "basicFlag",
      "outputs": [
        {
          "internalType": "uint256",
          "name": "",
          "type": "uint256"
        }
      ],
      "stateMutability": "view",
      "type": "function"
    },
    {
      "inputs": [],
      "name": "dividendFlag",
      "outputs": [
        {
          "internalType": "uint256",
          "name": "",
          "type": "uint256"
        }
      ],
      "stateMutability": "view",
      "type": "function"
    },
    {
      "inputs": [],
      "name": "tradeFlag",
      "outputs": [
        {
          "internalType": "uint256",
          "name": "",
          "type": "uint256"
        }
      ],
      "stateMutability": "view",
      "type": "function"
    }
  ],
  "bytecode": {
    "object": "0x608060405260016000556000600155600160025534801561001f57600080fd5b5060b88061002e6000396000f3fe6080604052348015600f57600080fd5b5060043610603c5760003560e01c80632c01c922146041578063745b07c814605b578063c43982cc146061575b600080fd5b60476067565b604051605291906079565b60405180910390f35b6047606d565b60476073565b60015481565b60025481565b60005481565b9081526020019056fea2646970667358221220bafad692e31ab12fbea1d75bd19b893798822f9ee286c0251a229392632f584164736f6c63430008000033",
    "linkReferences": {}
  },
  "methodIdentifiers": {
    "basicFlag()": "2c01c922",
    "dividendFlag()": "745b07c8",
    "tradeFlag()": "c43982cc"
  },
  "id": 0
}