{
  "abi": [
    {
      "inputs": [
        {
          "internalType": "address[]",
          "name": "_admins",
          "type": "address[]"
        },
        {
          "internalType": "uint256",
          "name": "_totalSupply",
          "type": "uint256"
        }
      ],
      "stateMutability": "nonpayable",
      "type": "constructor"
    },
    {
      "anonymous": false,
      "inputs": [
        {
          "indexed": false,
          "internalType": "address",
          "name": "userAddress",
          "type": "address"
        },
        {
          "indexed": false,
          "internalType": "uint256",
          "name": "tier",
          "type": "uint256"
        }
      ],
      "name": "AddedToWhitelist",
      "type": "event"
    },
    {
      "anonymous": false,
      "inputs": [
        {
          "indexed": true,
          "internalType": "address",
          "name": "previousOwner",
          "type": "address"
        },
        {
          "indexed": true,
          "internalType": "address",
          "name": "newOwner",
          "type": "address"
        }
      ],
      "name": "OwnershipTransferred",
      "type": "event"
    },
    {
      "anonymous": false,
      "inputs": [
        {
          "indexed": false,
          "internalType": "address",
          "name": "admin",
          "type": "address"
        },
        {
          "indexed": false,
          "internalType": "uint256",
          "name": "ID",
          "type": "uint256"
        },
        {
          "indexed": false,
          "internalType": "uint256",
          "name": "amount",
          "type": "uint256"
        },
        {
          "indexed": false,
          "internalType": "string",
          "name": "recipient",
          "type": "string"
        }
      ],
      "name": "PaymentUpdated",
      "type": "event"
    },
    {
      "anonymous": false,
      "inputs": [
        {
          "indexed": false,
          "internalType": "address",
          "name": "recipient",
          "type": "address"
        },
        {
          "indexed": false,
          "internalType": "uint256",
          "name": "amount",
          "type": "uint256"
        }
      ],
      "name": "Transfer",
      "type": "event"
    },
    {
      "anonymous": false,
      "inputs": [
        {
          "indexed": true,
          "internalType": "address",
          "name": "",
          "type": "address"
        }
      ],
      "name": "WhiteListTransfer",
      "type": "event"
    },
    {
      "anonymous": false,
      "inputs": [
        {
          "indexed": true,
          "internalType": "address",
          "name": "",
          "type": "address"
        },
        {
          "indexed": true,
          "internalType": "uint256",
          "name": "",
          "type": "uint256"
        }
      ],
      "name": "supplyChanged",
      "type": "event"
    },
    {
      "stateMutability": "payable",
      "type": "fallback"
    },
    {
      "inputs": [
        {
          "internalType": "address",
          "name": "_updateAddress",
          "type": "address"
        },
        {
          "internalType": "bool",
          "name": "_tradeMode",
          "type": "bool"
        }
      ],
      "name": "addHistory",
      "outputs": [
        {
          "internalType": "bool",
          "name": "status_",
          "type": "bool"
        },
        {
          "internalType": "bool",
          "name": "tradeMode_",
          "type": "bool"
        }
      ],
      "stateMutability": "nonpayable",
      "type": "function"
    },
    {
      "inputs": [
        {
          "internalType": "address",
          "name": "_userAddrs",
          "type": "address"
        },
        {
          "internalType": "uint256",
          "name": "_tier",
          "type": "uint256"
        }
      ],
      "name": "addToWhitelist",
      "outputs": [],
      "stateMutability": "nonpayable",
      "type": "function"
    },
    {
      "inputs": [
        {
          "internalType": "uint256",
          "name": "",
          "type": "uint256"
        }
      ],
      "name": "administrators",
      "outputs": [
        {
          "internalType": "address",
          "name": "",
          "type": "address"
        }
      ],
      "stateMutability": "view",
      "type": "function"
    },
    {
      "inputs": [
        {
          "internalType": "address",
          "name": "_user",
          "type": "address"
        }
      ],
      "name": "balanceOf",
      "outputs": [
        {
          "internalType": "uint256",
          "name": "balance_",
          "type": "uint256"
        }
      ],
      "stateMutability": "view",
      "type": "function"
    },
    {
      "inputs": [
        {
          "internalType": "address",
          "name": "",
          "type": "address"
        }
      ],
      "name": "balances",
      "outputs": [
        {
          "internalType": "uint256",
          "name": "",
          "type": "uint256"
        }
      ],
      "stateMutability": "view",
      "type": "function"
    },
    {
      "inputs": [],
      "name": "basicFlag",
      "outputs": [
        {
          "internalType": "uint256",
          "name": "",
          "type": "uint256"
        }
      ],
      "stateMutability": "view",
      "type": "function"
    },
    {
      "inputs": [
        {
          "internalType": "address",
          "name": "_user",
          "type": "address"
        }
      ],
      "name": "checkForAdmin",
      "outputs": [
        {
          "internalType": "bool",
          "name": "admin_",
          "type": "bool"
        }
      ],
      "stateMutability": "view",
      "type": "function"
    },
    {
      "inputs": [],
      "name": "contractOwner",
      "outputs": [
        {
          "internalType": "address",
          "name": "",
          "type": "address"
        }
      ],
      "stateMutability": "view",
      "type": "function"
    },
    {
      "inputs": [],
      "name": "dividendFlag",
      "outputs": [
        {
          "internalType": "uint256",
          "name": "",
          "type": "uint256"
        }
      ],
      "stateMutability": "view",
      "type": "function"
    },
    {
      "inputs": [],
      "name": "getPaymentHistory",
      "outputs": [
        {
          "components": [
            {
              "internalType": "uint256",
              "name": "lastUpdate",
              "type": "uint256"
            },
            {
              "internalType": "address",
              "name": "updatedBy",
              "type": "address"
            },
            {
              "internalType": "uint256",
              "name": "blockNumber",
              "type": "uint256"
            }
          ],
          "internalType": "struct GasContractOld.History[]",
          "name": "paymentHistory_",
          "type": "tuple[]"
        }
      ],
      "stateMutability": "payable",
      "type": "function"
    },
    {
      "inputs": [
        {
          "internalType": "address",
          "name": "sender",
          "type": "address"
        }
      ],
      "name": "getPaymentStatus",
      "outputs": [
        {
          "internalType": "bool",
          "name": "",
          "type": "bool"
        },
        {
          "internalType": "uint256",
          "name": "",
          "type": "uint256"
        }
      ],
      "stateMutability": "nonpayable",
      "type": "function"
    },
    {
      "inputs": [
        {
          "internalType": "address",
          "name": "_user",
          "type": "address"
        }
      ],
      "name": "getPayments",
      "outputs": [
        {
          "components": [
            {
              "internalType": "enum GasContractOld.PaymentType",
              "name": "paymentType",
              "type": "uint8"
            },
            {
              "internalType": "uint256",
              "name": "paymentID",
              "type": "uint256"
            },
            {
              "internalType": "bool",
              "name": "adminUpdated",
              "type": "bool"
            },
            {
              "internalType": "string",
              "name": "recipientName",
              "type": "string"
            },
            {
              "internalType": "address",
              "name": "recipient",
              "type": "address"
            },
            {
              "internalType": "address",
              "name": "admin",
              "type": "address"
            },
            {
              "internalType": "uint256",
              "name": "amount",
              "type": "uint256"
            }
          ],
          "internalType": "struct GasContractOld.Payment[]",
          "name": "payments_",
          "type": "tuple[]"
        }
      ],
      "stateMutability": "view",
      "type": "function"
    },
    {
      "inputs": [],
      "name": "getTradingMode",
      "outputs": [
        {
          "internalType": "bool",
          "name": "mode_",
          "type": "bool"
        }
      ],
      "stateMutability": "view",
      "type": "function"
    },
    {
      "inputs": [
        {
          "internalType": "address",
          "name": "",
          "type": "address"
        }
      ],
      "name": "isOddWhitelistUser",
      "outputs": [
        {
          "internalType": "uint256",
          "name": "",
          "type": "uint256"
        }
      ],
      "stateMutability": "view",
      "type": "function"
    },
    {
      "inputs": [],
      "name": "isReady",
      "outputs": [
        {
          "internalType": "bool",
          "name": "",
          "type": "bool"
        }
      ],
      "stateMutability": "view",
      "type": "function"
    },
    {
      "inputs": [],
      "name": "owner",
      "outputs": [
        {
          "internalType": "address",
          "name": "",
          "type": "address"
        }
      ],
      "stateMutability": "view",
      "type": "function"
    },
    {
      "inputs": [],
      "name": "paymentCounter",
      "outputs": [
        {
          "internalType": "uint256",
          "name": "",
          "type": "uint256"
        }
      ],
      "stateMutability": "view",
      "type": "function"
    },
    {
      "inputs": [
        {
          "internalType": "uint256",
          "name": "",
          "type": "uint256"
        }
      ],
      "name": "paymentHistory",
      "outputs": [
        {
          "internalType": "uint256",
          "name": "lastUpdate",
          "type": "uint256"
        },
        {
          "internalType": "address",
          "name": "updatedBy",
          "type": "address"
        },
        {
          "internalType": "uint256",
          "name": "blockNumber",
          "type": "uint256"
        }
      ],
      "stateMutability": "view",
      "type": "function"
    },
    {
      "inputs": [
        {
          "internalType": "address",
          "name": "",
          "type": "address"
        },
        {
          "internalType": "uint256",
          "name": "",
          "type": "uint256"
        }
      ],
      "name": "payments",
      "outputs": [
        {
          "internalType": "enum GasContractOld.PaymentType",
          "name": "paymentType",
          "type": "uint8"
        },
        {
          "internalType": "uint256",
          "name": "paymentID",
          "type": "uint256"
        },
        {
          "internalType": "bool",
          "name": "adminUpdated",
          "type": "bool"
        },
        {
          "internalType": "string",
          "name": "recipientName",
          "type": "string"
        },
        {
          "internalType": "address",
          "name": "recipient",
          "type": "address"
        },
        {
          "internalType": "address",
          "name": "admin",
          "type": "address"
        },
        {
          "internalType": "uint256",
          "name": "amount",
          "type": "uint256"
        }
      ],
      "stateMutability": "view",
      "type": "function"
    },
    {
      "inputs": [],
      "name": "renounceOwnership",
      "outputs": [],
      "stateMutability": "nonpayable",
      "type": "function"
    },
    {
      "inputs": [],
      "name": "totalSupply",
      "outputs": [
        {
          "internalType": "uint256",
          "name": "",
          "type": "uint256"
        }
      ],
      "stateMutability": "view",
      "type": "function"
    },
    {
      "inputs": [],
      "name": "tradeFlag",
      "outputs": [
        {
          "internalType": "uint256",
          "name": "",
          "type": "uint256"
        }
      ],
      "stateMutability": "view",
      "type": "function"
    },
    {
      "inputs": [],
      "name": "tradeMode",
      "outputs": [
        {
          "internalType": "uint256",
          "name": "",
          "type": "uint256"
        }
      ],
      "stateMutability": "view",
      "type": "function"
    },
    {
      "inputs": [],
      "name": "tradePercent",
      "outputs": [
        {
          "internalType": "uint256",
          "name": "",
          "type": "uint256"
        }
      ],
      "stateMutability": "view",
      "type": "function"
    },
    {
      "inputs": [
        {
          "internalType": "address",
          "name": "_recipient",
          "type": "address"
        },
        {
          "internalType": "uint256",
          "name": "_amount",
          "type": "uint256"
        },
        {
          "internalType": "string",
          "name": "_name",
          "type": "string"
        }
      ],
      "name": "transfer",
      "outputs": [
        {
          "internalType": "bool",
          "name": "status_",
          "type": "bool"
        }
      ],
      "stateMutability": "nonpayable",
      "type": "function"
    },
    {
      "inputs": [
        {
          "internalType": "address",
          "name": "newOwner",
          "type": "address"
        }
      ],
      "name": "transferOwnership",
      "outputs": [],
      "stateMutability": "nonpayable",
      "type": "function"
    },
    {
      "inputs": [
        {
          "internalType": "address",
          "name": "_user",
          "type": "address"
        },
        {
          "internalType": "uint256",
          "name": "_ID",
          "type": "uint256"
        },
        {
          "internalType": "uint256",
          "name": "_amount",
          "type": "uint256"
        },
        {
          "internalType": "enum GasContractOld.PaymentType",
          "name": "_type",
          "type": "uint8"
        }
      ],
      "name": "updatePayment",
      "outputs": [],
      "stateMutability": "nonpayable",
      "type": "function"
    },
    {
      "inputs": [
        {
          "internalType": "address",
          "name": "",
          "type": "address"
        }
      ],
      "name": "whiteListStruct",
      "outputs": [
        {
          "internalType": "uint256",
          "name": "amount",
          "type": "uint256"
        },
        {
          "internalType": "uint256",
          "name": "valueA",
          "type": "uint256"
        },
        {
          "internalType": "uint256",
          "name": "bigValue",
          "type": "uint256"
        },
        {
          "internalType": "uint256",
          "name": "valueB",
          "type": "uint256"
        },
        {
          "internalType": "bool",
          "name": "paymentStatus",
          "type": "bool"
        },
        {
          "internalType": "address",
          "name": "sender",
          "type": "address"
        }
      ],
      "stateMutability": "view",
      "type": "function"
    },
    {
      "inputs": [
        {
          "internalType": "address",
          "name": "_recipient",
          "type": "address"
        },
        {
          "internalType": "uint256",
          "name": "_amount",
          "type": "uint256"
        }
      ],
      "name": "whiteTransfer",
      "outputs": [],
      "stateMutability": "nonpayable",
      "type": "function"
    },
    {
      "inputs": [
        {
          "internalType": "address",
          "name": "",
          "type": "address"
        }
      ],
      "name": "whitelist",
      "outputs": [
        {
          "internalType": "uint256",
          "name": "",
          "type": "uint256"
        }
      ],
      "stateMutability": "view",
      "type": "function"
    },
    {
      "stateMutability": "payable",
      "type": "receive"
    }
  ],
  "bytecode": {
    "object": "0x6080604052600180805560006002819055600382905560048190556005819055600c6007556009556011805460ff191690556013553480156200004157600080fd5b5060405162002fb538038062002fb58339810160408190526200006491620003c6565b620000786200007262000355565b62000359565b600880546001600160a01b03191633179055600481905560005b60058110156200034c5760006001600160a01b0316838281518110620000c857634e487b7160e01b600052603260045260246000fd5b60200260200101516001600160a01b03161462000337578281815181106200010057634e487b7160e01b600052603260045260246000fd5b6020026020010151600c82600581106200012a57634e487b7160e01b600052603260045260246000fd5b0180546001600160a01b0319166001600160a01b0392831617905560085484519116908490839081106200016e57634e487b7160e01b600052603260045260246000fd5b60200260200101516001600160a01b03161415620001aa576004546008546001600160a01b0316600090815260066020526040902055620001fe565b600060066000858481518110620001d157634e487b7160e01b600052603260045260246000fd5b60200260200101516001600160a01b03166001600160a01b03168152602001908152602001600020819055505b60085483516001600160a01b03909116908490839081106200023057634e487b7160e01b600052603260045260246000fd5b60200260200101516001600160a01b031614156200029e576004548382815181106200026c57634e487b7160e01b600052603260045260246000fd5b60200260200101516001600160a01b031660008051602062002f9583398151915260405160405180910390a362000337565b60085483516001600160a01b0390911690849083908110620002d057634e487b7160e01b600052603260045260246000fd5b60200260200101516001600160a01b031614620003375760008382815181106200030a57634e487b7160e01b600052603260045260246000fd5b60200260200101516001600160a01b031660008051602062002f9583398151915260405160405180910390a35b8062000343816200049c565b91505062000092565b505050620004da565b3390565b600080546001600160a01b038381166001600160a01b0319831681178455604051919092169283917f8be0079c531659141344cd1fd0a4f28419497f9722a3daafe3b4186f6b6457e09190a35050565b80516001600160a01b0381168114620003c157600080fd5b919050565b60008060408385031215620003d9578182fd5b82516001600160401b0380821115620003f0578384fd5b818501915085601f83011262000404578384fd5b81516020828211156200041b576200041b620004c4565b808202604051828282010181811086821117156200043d576200043d620004c4565b604052838152828101945085830182870184018b10156200045c578889fd5b8896505b8487101562000489576200047481620003a9565b86526001969096019594830194830162000460565b5097909101519698969750505050505050565b6000600019821415620004bd57634e487b7160e01b81526011600452602481fd5b5060010190565b634e487b7160e01b600052604160045260246000fd5b612aab80620004ea6000396000f3fe6080604052600436106101615760003560e01c806318160ddd146101c15780631d6a1711146101ec578063214405fc1461021957806327e235e31461023b5780632c01c9221461025b5780634e86eb161461027057806356b8c724146102905780635de45813146102bd5780636fd47b44146102ef57806370a0823114610304578063715018a614610324578063745b07c81461033957806376840b601461034e578063888b2284146103635780638da5cb5b146103915780638efcf5c0146103b35780639a9f8383146103e15780639b19251a146103f6578063a094a03114610416578063a30da0691461042b578063a5e047b81461044b578063ab63385c1461047a578063b52d15e2146104ad578063b651bb61146104cd578063c43982cc146104e2578063cbd5d73f146104f7578063ce606ee01461050c578063d89d151014610521578063ea28d32014610541578063f2fde38b1461056157610195565b366101955760405133903480156108fc02916000818181858888f19350505050158015610192573d6000803e3d6000fd5b50005b60405133903480156108fc02916000818181858888f19350505050158015610192573d6000803e3d6000fd5b3480156101cd57600080fd5b506101d6610581565b6040516101e391906128b3565b60405180910390f35b3480156101f857600080fd5b5061020c610207366004611ceb565b610587565b6040516101e39190612019565b34801561022557600080fd5b50610239610234366004611d46565b610752565b005b34801561024757600080fd5b506101d6610256366004611ceb565b6109d2565b34801561026757600080fd5b506101d66109e4565b34801561027c57600080fd5b5061023961028b366004611df0565b6109ea565b34801561029c57600080fd5b506102b06102ab366004611d6f565b611080565b6040516101e391906120da565b3480156102c957600080fd5b506102dd6102d8366004611ceb565b6113ba565b6040516101e3969594939291906128db565b3480156102fb57600080fd5b506101d66113fc565b34801561031057600080fd5b506101d661031f366004611ceb565b611402565b34801561033057600080fd5b5061023961141d565b34801561034557600080fd5b506101d6611431565b34801561035a57600080fd5b506101d6611437565b34801561036f57600080fd5b5061038361037e366004611ceb565b61143d565b6040516101e39291906120f7565b34801561039d57600080fd5b506103a6611463565b6040516101e39190611ebf565b3480156103bf57600080fd5b506103d36103ce366004611d0c565b611472565b6040516101e39291906120e5565b3480156103ed57600080fd5b506102b0611619565b34801561040257600080fd5b506101d6610411366004611ceb565b611646565b34801561042257600080fd5b506102b0611658565b34801561043757600080fd5b506101d6610446366004611ceb565b611661565b34801561045757600080fd5b5061046b610466366004611e3a565b611673565b6040516101e3939291906128bc565b34801561048657600080fd5b5061049a610495366004611d46565b6116b2565b6040516101e39796959493929190612107565b3480156104b957600080fd5b506102b06104c8366004611ceb565b6117aa565b6104d5611812565b6040516101e39190611fb7565b3480156104ee57600080fd5b506101d6611894565b34801561050357600080fd5b506101d661189a565b34801561051857600080fd5b506103a66118a0565b34801561052d57600080fd5b506103a661053c366004611e3a565b6118af565b34801561054d57600080fd5b5061023961055c366004611d46565b6118cf565b34801561056d57600080fd5b5061023961057c366004611ceb565b611b07565b60045481565b60606001600160a01b0382166105b85760405162461bcd60e51b81526004016105af90612840565b60405180910390fd5b6001600160a01b0382166000908152600a6020908152604080832080548251818502810185019093528083529193909284015b82821015610746576000848152602090206040805160e08101909152600784029091018054829060ff16600481111561063457634e487b7160e01b600052602160045260246000fd5b600481111561065357634e487b7160e01b600052602160045260246000fd5b815260018201546020820152600282015460ff161515604082015260038201805460609092019161068390612949565b80601f01602080910402602001604051908101604052809291908181526020018280546106af90612949565b80156106fc5780601f106106d1576101008083540402835291602001916106fc565b820191906000526020600020905b8154815290600101906020018083116106df57829003601f168201915b505050918352505060048201546001600160a01b039081166020808401919091526005840154909116604083015260069092015460609091015290825260019290920191016105eb565b5050505090505b919050565b3361075c816117aa565b1561097f5761076a816117aa565b6107865760405162461bcd60e51b81526004016105af90612794565b60ff82106107a65760405162461bcd60e51b81526004016105af9061232a565b6001600160a01b0383166000908152600b602052604090208290556003821115610818576001600160a01b0383166000908152600b6020526040812080548492906107f2908490612932565b90915550506001600160a01b0383166000908152600b60205260409020600390556108ce565b816001141561086f576001600160a01b0383166000908152600b602052604081208054849290610849908490612932565b90915550506001600160a01b0383166000908152600b60205260409020600190556108ce565b60008211801561087f5750600382105b156108ce576001600160a01b0383166000908152600b6020526040812080548492906108ac908490612932565b90915550506001600160a01b0383166000908152600b60205260409020600290555b60135460018114156108fe57600060138190556001600160a01b0385168152601460205260409020819055610940565b806109285760016013556001600160a01b0384166000908152601460205260409020819055610940565b60405162461bcd60e51b81526004016105af90612458565b7f62c1e066774519db9fe35767c15fc33df2f016675b7cc0c330ed185f286a2d528484604051610971929190611ed3565b60405180910390a1506109cd565b6008546001600160a01b03828116911614156109b55760ff82106107a65760405162461bcd60e51b81526004016105af9061232a565b60405162461bcd60e51b81526004016105af906125de565b505050565b60066020526000908152604090205481565b60025481565b336109f4816117aa565b15610d4457610a02816117aa565b610a1e5760405162461bcd60e51b81526004016105af90612794565b60008411610a3e5760405162461bcd60e51b81526004016105af906121a1565b60008311610a5e5760405162461bcd60e51b81526004016105af90612501565b6001600160a01b038516610a845760405162461bcd60e51b81526004016105af906126f2565b3360005b6001600160a01b0387166000908152600a6020526040902054811015610d3d576001600160a01b0387166000908152600a60205260409020805487919083908110610ae357634e487b7160e01b600052603260045260246000fd5b9060005260206000209060070201600101541415610d2b576001600160a01b0387166000908152600a6020526040902080546001919083908110610b3757634e487b7160e01b600052603260045260246000fd5b906000526020600020906007020160020160006101000a81548160ff02191690831515021790555086600a6000896001600160a01b03166001600160a01b031681526020019081526020016000208281548110610ba457634e487b7160e01b600052603260045260246000fd5b6000918252602080832060079290920290910160050180546001600160a01b0319166001600160a01b039485161790559189168152600a90915260409020805485919083908110610c0557634e487b7160e01b600052603260045260246000fd5b60009182526020909120600790910201805460ff19166001836004811115610c3d57634e487b7160e01b600052602160045260246000fd5b02179055506001600160a01b0387166000908152600a60205260409020805486919083908110610c7d57634e487b7160e01b600052603260045260246000fd5b9060005260206000209060070201600601819055506000610c9c611619565b9050610ca88882611472565b50506000805160206129d6833981519152838888600a60008d6001600160a01b03166001600160a01b031681526020019081526020016000208681548110610d0057634e487b7160e01b600052603260045260246000fd5b9060005260206000209060070201600301604051610d219493929190611eec565b60405180910390a1505b80610d3581612984565b915050610a88565b5050611079565b6008546001600160a01b03828116911614156109b55760008411610d7a5760405162461bcd60e51b81526004016105af906121a1565b60008311610d9a5760405162461bcd60e51b81526004016105af90612501565b6001600160a01b038516610dc05760405162461bcd60e51b81526004016105af906126f2565b3360005b6001600160a01b0387166000908152600a6020526040902054811015610d3d576001600160a01b0387166000908152600a60205260409020805487919083908110610e1f57634e487b7160e01b600052603260045260246000fd5b9060005260206000209060070201600101541415611067576001600160a01b0387166000908152600a6020526040902080546001919083908110610e7357634e487b7160e01b600052603260045260246000fd5b906000526020600020906007020160020160006101000a81548160ff02191690831515021790555086600a6000896001600160a01b03166001600160a01b031681526020019081526020016000208281548110610ee057634e487b7160e01b600052603260045260246000fd5b6000918252602080832060079290920290910160050180546001600160a01b0319166001600160a01b039485161790559189168152600a90915260409020805485919083908110610f4157634e487b7160e01b600052603260045260246000fd5b60009182526020909120600790910201805460ff19166001836004811115610f7957634e487b7160e01b600052602160045260246000fd5b02179055506001600160a01b0387166000908152600a60205260409020805486919083908110610fb957634e487b7160e01b600052603260045260246000fd5b9060005260206000209060070201600601819055506000610fd8611619565b9050610fe48882611472565b50506000805160206129d6833981519152838888600a60008d6001600160a01b03166001600160a01b03168152602001908152602001600020868154811061103c57634e487b7160e01b600052603260045260246000fd5b906000526020600020906007020160030160405161105d9493929190611eec565b60405180910390a1505b8061107181612984565b915050610dc4565b5050505050565b336000818152600660205260408120549091908511156110b25760405162461bcd60e51b81526004016105af906123a3565b600983106110d25760405162461bcd60e51b81526004016105af9061255b565b6001600160a01b038116600090815260066020526040812080548792906110fa908490612932565b90915550506001600160a01b0386166000908152600660205260408120805487929061112790849061291a565b90915550506040517f69ca02dd4edd7bf0a4abb9ed3b7af3f14778db5d61921c7dc7cd545266326de29061115e9088908890611ed3565b60405180910390a161116e611bd4565b600060a082018190526040820152600181819052506001600160a01b038716608082015260c08101869052604080516020601f870181900481028201810190925285815290869086908190840183828082843760009201829052506060860194909452505060058054909291506111e490612984565b91829055506020808301919091526001600160a01b0383166000908152600a825260408120805460018181018355918352929091208351600790930201805484939192839160ff19169083600481111561124e57634e487b7160e01b600052602160045260246000fd5b02179055506020828101516001830155604083015160028301805460ff19169115159190911790556060830151805161128d9260038501920190611c11565b5060808201516004820180546001600160a01b039283166001600160a01b03199182161790915560a084015160058401805491909316911617905560c0909101516006909101556007546000906001600160401b038111156112ff57634e487b7160e01b600052604160045260246000fd5b604051908082528060200260200182016040528015611328578160200160208202803683370190505b50905060005b60075481101561137c57600182828151811061135a57634e487b7160e01b600052603260045260246000fd5b911515602092830291909101909101528061137481612984565b91505061132e565b508060008151811061139e57634e487b7160e01b600052603260045260246000fd5b6020026020010151151560011515149350505050949350505050565b601560205260009081526040902080546001820154600283015460038401546004909401549293919290919060ff81169061010090046001600160a01b031686565b60095481565b6001600160a01b031660009081526006602052604090205490565b611425611b41565b61142f6000611b80565b565b60035481565b60055481565b6001600160a01b031660009081526015602052604090206004810154905460ff90911691565b6000546001600160a01b031690565b60008061147d611c95565b43604082019081524282526001600160a01b038681166020840190815260128054600181018255600091825285517fbb8a6a4669ba250d26cd7a459eca9d215f8307e33aebe50379bc5a3617ec344460039092029182015591517fbb8a6a4669ba250d26cd7a459eca9d215f8307e33aebe50379bc5a3617ec3445830180546001600160a01b031916919094161790925591517fbb8a6a4669ba250d26cd7a459eca9d215f8307e33aebe50379bc5a3617ec3446909201919091556007546001600160401b0381111561156057634e487b7160e01b600052604160045260246000fd5b604051908082528060200260200182016040528015611589578160200160208202803683370190505b50905060005b6007548110156115dd5760018282815181106115bb57634e487b7160e01b600052603260045260246000fd5b91151560209283029190910190910152806115d581612984565b91505061158f565b50806000815181106115ff57634e487b7160e01b600052603260045260246000fd5b602090810291909101015115156001149694955050505050565b600180546000918291148061163057506003546001145b1561163d57506001611641565b5060005b905090565b600b6020526000908152604090205481565b60115460ff1681565b60146020526000908152604090205481565b6012818154811061168357600080fd5b60009182526020909120600390910201805460018201546002909201549092506001600160a01b039091169083565b600a60205281600052604060002081815481106116ce57600080fd5b6000918252602090912060079091020180546001820154600283015460038401805460ff9485169750929550921692919061170890612949565b80601f016020809104026020016040519081016040528092919081815260200182805461173490612949565b80156117815780601f1061175657610100808354040283529160200191611781565b820191906000526020600020905b81548152906001019060200180831161176457829003601f168201915b505050506004830154600584015460069094015492936001600160a01b03918216939116915087565b600080805b600581101561180b57836001600160a01b0316600c82600581106117e357634e487b7160e01b600052603260045260246000fd5b01546001600160a01b031614156117f957600191505b8061180381612984565b9150506117af565b5092915050565b60606012805480602002602001604051908101604052809291908181526020016000905b8282101561188b5760008481526020908190206040805160608101825260038602909201805483526001808201546001600160a01b031684860152600290910154918301919091529083529092019101611836565b50505050905090565b60015481565b60075481565b6008546001600160a01b031681565b600c81600581106118bf57600080fd5b01546001600160a01b0316905081565b336000818152600b60205260409020548190806118fe5760405162461bcd60e51b81526004016105af906123f9565b6004811061191e5760405162461bcd60e51b81526004016105af906121f7565b6040805160c08101825285815260006020808301828152838501838152606085018481526001608087018181523360a08901818152818952601588528a892099518a55955192890192909255925160028801559051600387015590516004909501805492516001600160a01b031661010002610100600160a81b031996151560ff199094169390931795909516919091179093556006905291909120548511156119da5760405162461bcd60e51b81526004016105af906127e4565b600385116119fa5760405162461bcd60e51b81526004016105af9061249d565b6001600160a01b03811660009081526006602052604081208054879290611a22908490612932565b90915550506001600160a01b03861660009081526006602052604081208054879290611a4f90849061291a565b90915550506001600160a01b0381166000908152600b602090815260408083205460069092528220805491929091611a8890849061291a565b90915550506001600160a01b038082166000908152600b6020908152604080832054938a168352600690915281208054909190611ac6908490612932565b90915550506040516001600160a01b038716907f98eaee7299e9cbfa56cf530fd3a0c6dfa0ccddf4f837b8f025651ad9594647b390600090a2505050505050565b611b0f611b41565b6001600160a01b038116611b355760405162461bcd60e51b81526004016105af9061215b565b611b3e81611b80565b50565b611b49611bd0565b6001600160a01b0316611b5a611463565b6001600160a01b03161461142f5760405162461bcd60e51b81526004016105af9061275f565b600080546001600160a01b038381166001600160a01b0319831681178455604051919092169283917f8be0079c531659141344cd1fd0a4f28419497f9722a3daafe3b4186f6b6457e09190a35050565b3390565b6040805160e081019091528060008152600060208201819052604082018190526060808301526080820181905260a0820181905260c09091015290565b828054611c1d90612949565b90600052602060002090601f016020900481019282611c3f5760008555611c85565b82601f10611c5857805160ff1916838001178555611c85565b82800160010185558215611c85579182015b82811115611c85578251825591602001919060010190611c6a565b50611c91929150611cbf565b5090565b60405180606001604052806000815260200160006001600160a01b03168152602001600081525090565b5b80821115611c915760008155600101611cc0565b80356001600160a01b038116811461074d57600080fd5b600060208284031215611cfc578081fd5b611d0582611cd4565b9392505050565b60008060408385031215611d1e578081fd5b611d2783611cd4565b915060208301358015158114611d3b578182fd5b809150509250929050565b60008060408385031215611d58578182fd5b611d6183611cd4565b946020939093013593505050565b60008060008060608587031215611d84578182fd5b611d8d85611cd4565b93506020850135925060408501356001600160401b0380821115611daf578384fd5b818701915087601f830112611dc2578384fd5b813581811115611dd0578485fd5b886020828501011115611de1578485fd5b95989497505060200194505050565b60008060008060808587031215611e05578384fd5b611e0e85611cd4565b93506020850135925060408501359150606085013560058110611e2f578182fd5b939692955090935050565b600060208284031215611e4b578081fd5b5035919050565b60058110611e7057634e487b7160e01b600052602160045260246000fd5b9052565b60008151808452815b81811015611e9957602081850181015186830182015201611e7d565b81811115611eaa5782602083870101525b50601f01601f19169290920160200192915050565b6001600160a01b0391909116815260200190565b6001600160a01b03929092168252602082015260400190565b6001600160a01b038516815260208082018590526040820184905260806060830152825460009190829060028104600182811680611f2b57607f831692505b858310811415611f4957634e487b7160e01b87526022600452602487fd5b611f568360808a016128b3565b818015611f6a5760018114611f7b57611fa5565b60ff19861682528782019650611fa5565b611f848b61290e565b895b86811015611f9f57815484820152908501908901611f86565b83019750505b50949c9b505050505050505050505050565b602080825282518282018190526000919060409081850190868401855b8281101561200c57815180518552868101516001600160a01b0316878601528501518585015260609093019290850190600101611fd4565b5091979650505050505050565b60208082528251828201819052600091906040908185019080840286018301878501865b838110156120cc57603f19898403018552815160e061205d858351611e52565b888201518986015287820151151588860152606080830151828288015261208683880182611e74565b6080858101516001600160a01b03908116918a019190915260a0808701519091169089015260c0948501519490970193909352505050938601939086019060010161203d565b509098975050505050505050565b901515815260200190565b91151582521515602082015260400190565b9115158252602082015260400190565b6000612113828a611e52565b876020830152861515604083015260e0606083015261213560e0830187611e74565b6001600160a01b0395861660808401529390941660a082015260c0015295945050505050565b60208082526026908201527f4f776e61626c653a206e6577206f776e657220697320746865207a65726f206160408201526564647265737360d01b606082015260800190565b60208082526042908201526000805160206129f683398151915260408201527f6e6374696f6e202d204944206d7573742062652067726561746572207468616e606082015261020360f41b608082015260a00190565b602080825261010890820152600080516020612a5683398151915260408201526000805160206129b683398151915260608201527f73652074686520757365722773207469657220697320696e636f72726563742c60808201527f2069742063616e6e6f74206265206f766572203420617320746865206f6e6c7960a08201527f20746965722077652068617665206172653a20312c20322c20333b207468657260c08201527f666f7265203420697320616e20696e76616c6964207469657220666f7220746860e08201527f6520776869746c697374206f66207468697320636f6e74726163742e206d616b6101008201527f65207375726520776869746c6973742074696572732077657265207365742063610120820152676f72726563746c7960c01b6101408201526101600190565b60208082526053908201527f47617320436f6e7472616374202d20616464546f57686974656c69737420667560408201527f6e6374696f6e202d202074696572206c6576656c2073686f756c64206e6f742060608201527262652067726561746572207468616e2032353560681b608082015260a00190565b6020808252604290820152600080516020612a3683398151915260408201527f202d2053656e6465722068617320696e73756666696369656e742042616c616e606082015261636560f01b608082015260a00190565b6020808252605e90820152600080516020612a5683398151915260408201526000805160206129b683398151915260608201527f7365207468652075736572206973206e6f742077686974656c69737465640000608082015260a00190565b60208082526025908201527f436f6e7472616374206861636b65642c20696d706f7369626c652c2063616c6c60408201526402068656c760dc1b606082015260800190565b6020808252605090820152600080516020612a1683398151915260408201527f6e6374696f6e202d20616d6f756e7420746f2073656e64206861766520746f2060608201526f626520626967676572207468616e203360801b608082015260a00190565b60208082526046908201526000805160206129f683398151915260408201527f6e6374696f6e202d20416d6f756e74206d75737420626520677265617465722060608201526507468616e20360d41b608082015260a00190565b6020808252606990820152600080516020612a3683398151915260408201527f202d202054686520726563697069656e74206e616d6520697320746f6f206c6f60608201527f6e672c2074686572652069732061206d6178206c656e677468206f662038206360808201526868617261637465727360b81b60a082015260c00190565b602080825260d4908201527f4572726f7220696e2047617320636f6e7472616374202d206f6e6c7941646d6960408201527f6e4f724f776e6572206d6f646966696572203a2072657665727420686170706560608201527f6e6564206265636175736520746865206f726967696e61746f72206f6620746860808201527f65207472616e73616374696f6e20776173206e6f74207468652061646d696e2c60a08201527f20616e6420667572746865726d6f7265206865207761736e277420746865206f60c08201527f776e6572206f662074686520636f6e74726163742c20736f2068652063616e6e60e08201527337ba10393ab7103a3434b990333ab731ba34b7b760611b6101008201526101200190565b60208082526059908201526000805160206129f683398151915260408201527f6e6374696f6e202d2041646d696e6973747261746f72206d757374206861766560608201527820612076616c6964206e6f6e207a65726f206164647265737360381b608082015260a00190565b6020808252818101527f4f776e61626c653a2063616c6c6572206973206e6f7420746865206f776e6572604082015260600190565b60208082526030908201527f47617320436f6e7472616374204f6e6c792041646d696e20436865636b2d202060408201526f21b0b63632b9103737ba1030b236b4b760811b606082015260800190565b6020808252604890820152600080516020612a1683398151915260408201527f6e6374696f6e202d2053656e6465722068617320696e73756666696369656e746060820152672042616c616e636560c01b608082015260a00190565b6020808252604d908201527f47617320436f6e7472616374202d206765745061796d656e74732066756e637460408201527f696f6e202d2055736572206d757374206861766520612076616c6964206e6f6e60608201526c207a65726f206164647265737360981b608082015260a00190565b90815260200190565b9283526001600160a01b03919091166020830152604082015260600190565b958652602086019490945260408501929092526060840152151560808301526001600160a01b031660a082015260c00190565b60009081526020902090565b6000821982111561292d5761292d61299f565b500190565b6000828210156129445761294461299f565b500390565b60028104600182168061295d57607f821691505b6020821081141561297e57634e487b7160e01b600052602260045260246000fd5b50919050565b60006000198214156129985761299861299f565b5060010190565b634e487b7160e01b600052601160045260246000fdfe6d6f646966696572203a207265766572742068617070656e6564206265636175f41efc8c6b66b2a03b14fd69b985ad19a0b9245f24936163018e9ad06d4c143e47617320436f6e7472616374202d20557064617465205061796d656e7420667547617320436f6e7472616374202d2077686974655472616e736665727320667547617320436f6e7472616374202d205472616e736665722066756e6374696f6e47617320436f6e747261637420436865636b496657686974654c697374656420a26469706673582212204c91f86c9c3b63c684a926bb04c54dfe37b633451985b6f17333a808fee5428364736f6c63430008000033fbd610cf0373947747ba15effd5e459c81db984f8723671458c0e8624428ab04",
    "linkReferences": {}
  },
  "methodIdentifiers": {
    "addHistory(address,bool)": "8efcf5c0",
    "addToWhitelist(address,uint256)": "214405fc",
    "administrators(uint256)": "d89d1510",
    "balanceOf(address)": "70a08231",
    "balances(address)": "27e235e3",
    "basicFlag()": "2c01c922",
    "checkForAdmin(address)": "b52d15e2",
    "contractOwner()": "ce606ee0",
    "dividendFlag()": "745b07c8",
    "getPaymentHistory()": "b651bb61",
    "getPaymentStatus(address)": "888b2284",
    "getPayments(address)": "1d6a1711",
    "getTradingMode()": "9a9f8383",
    "isOddWhitelistUser(address)": "a30da069",
    "isReady()": "a094a031",
    "owner()": "8da5cb5b",
    "paymentCounter()": "76840b60",
    "paymentHistory(uint256)": "a5e047b8",
    "payments(address,uint256)": "ab63385c",
    "renounceOwnership()": "715018a6",
    "totalSupply()": "18160ddd",
    "tradeFlag()": "c43982cc",
    "tradeMode()": "6fd47b44",
    "tradePercent()": "cbd5d73f",
    "transfer(address,uint256,string)": "56b8c724",
    "transferOwnership(address)": "f2fde38b",
    "updatePayment(address,uint256,uint256,uint8)": "4e86eb16",
    "whiteListStruct(address)": "5de45813",
    "whiteTransfer(address,uint256)": "ea28d320",
    "whitelist(address)": "9b19251a"
  },
  "id": 0
}