{
  "abi": [
    {
      "inputs": [
        {
          "internalType": "address[]",
          "name": "_admins",
          "type": "address[]"
        },
        {
          "internalType": "uint256",
          "name": "",
          "type": "uint256"
        }
      ],
      "stateMutability": "nonpayable",
      "type": "constructor"
    },
    {
      "anonymous": false,
      "inputs": [
        {
          "indexed": false,
          "internalType": "address",
          "name": "userAddress",
          "type": "address"
        },
        {
          "indexed": false,
          "internalType": "uint256",
          "name": "tier",
          "type": "uint256"
        }
      ],
      "name": "AddedToWhitelist",
      "type": "event"
    },
    {
      "anonymous": false,
      "inputs": [
        {
          "indexed": true,
          "internalType": "address",
          "name": "",
          "type": "address"
        }
      ],
      "name": "WhiteListTransfer",
      "type": "event"
    },
    {
      "inputs": [
        {
          "internalType": "address",
          "name": "_userAddrs",
          "type": "address"
        },
        {
          "internalType": "uint256",
          "name": "_tier",
          "type": "uint256"
        }
      ],
      "name": "addToWhitelist",
      "outputs": [],
      "stateMutability": "nonpayable",
      "type": "function"
    },
    {
      "inputs": [
        {
          "internalType": "uint256",
          "name": "",
          "type": "uint256"
        }
      ],
      "name": "administrators",
      "outputs": [
        {
          "internalType": "address",
          "name": "",
          "type": "address"
        }
      ],
      "stateMutability": "view",
      "type": "function"
    },
    {
      "inputs": [
        {
          "internalType": "address",
          "name": "_user",
          "type": "address"
        }
      ],
      "name": "balanceOf",
      "outputs": [
        {
          "internalType": "uint256",
          "name": "balance_",
          "type": "uint256"
        }
      ],
      "stateMutability": "view",
      "type": "function"
    },
    {
      "inputs": [
        {
          "internalType": "address",
          "name": "",
          "type": "address"
        }
      ],
      "name": "balances",
      "outputs": [
        {
          "internalType": "uint256",
          "name": "",
          "type": "uint256"
        }
      ],
      "stateMutability": "view",
      "type": "function"
    },
    {
      "inputs": [
        {
          "internalType": "address",
          "name": "",
          "type": "address"
        }
      ],
      "name": "getPaymentStatus",
      "outputs": [
        {
          "internalType": "bool",
          "name": "",
          "type": "bool"
        },
        {
          "internalType": "uint256",
          "name": "",
          "type": "uint256"
        }
      ],
      "stateMutability": "view",
      "type": "function"
    },
    {
      "inputs": [
        {
          "internalType": "address",
          "name": "_recipient",
          "type": "address"
        },
        {
          "internalType": "uint256",
          "name": "_amount",
          "type": "uint256"
        },
        {
          "internalType": "string",
          "name": "",
          "type": "string"
        }
      ],
      "name": "transfer",
      "outputs": [],
      "stateMutability": "nonpayable",
      "type": "function"
    },
    {
      "inputs": [
        {
          "internalType": "address",
          "name": "_recipient",
          "type": "address"
        },
        {
          "internalType": "uint256",
          "name": "_amount",
          "type": "uint256"
        }
      ],
      "name": "whiteTransfer",
      "outputs": [],
      "stateMutability": "nonpayable",
      "type": "function"
    },
    {
      "inputs": [
        {
          "internalType": "address",
          "name": "",
          "type": "address"
        }
      ],
      "name": "whitelist",
      "outputs": [
        {
          "internalType": "uint256",
          "name": "",
          "type": "uint256"
        }
      ],
      "stateMutability": "view",
      "type": "function"
    }
  ],
  "bytecode": {
    "object": "0x610120604052733243ed9fdcde2345890ddeaf6b083ca4cf0f68f26080908152732b263f55bf2125159ce8ec2bb575c649f822ab4660a052730ed94bc8435f3189966a49ca1358a55d871fc3bf60c05273eadb3d065f8d15cc05e92594523516ad36d1c83460e0526112346101005261007c9060019060056100e1565b5034801561008957600080fd5b5060405161070f38038061070f8339810160408190526100a891610180565b50506112346000526006602052633b9aca007f10b1e604672e818efa6b0da52cb38f5faffa9915d51596d67f675ad393474d4f5561024c565b8260058101928215610129579160200282015b8281111561012957825182546001600160a01b0319166001600160a01b039091161782556020909201916001909101906100f4565b50610135929150610139565b5090565b5b80821115610135576000815560010161013a565b634e487b7160e01b600052604160045260246000fd5b80516001600160a01b038116811461017b57600080fd5b919050565b6000806040838503121561019357600080fd5b82516001600160401b03808211156101aa57600080fd5b818501915085601f8301126101be57600080fd5b81516020828211156101d2576101d261014e565b8160051b604051601f19603f830116810181811086821117156101f7576101f761014e565b60405292835281830193508481018201928984111561021557600080fd5b948201945b8386101561023a5761022b86610164565b8552948201949382019361021a565b97909101519698969750505050505050565b6104b48061025b6000396000f3fe608060405234801561001057600080fd5b50600436106100785760003560e01c8063214405fc1461007d57806327e235e31461009257806356b8c724146100c557806370a08231146100d8578063888b2284146101015780639b19251a1461012f578063d89d15101461014f578063ea28d3201461017a575b600080fd5b61009061008b366004610351565b61018d565b005b6100b26100a036600461037b565b60066020526000908152604090205481565b6040519081526020015b60405180910390f35b6100906100d336600461039d565b610213565b6100b26100e636600461037b565b6001600160a01b031660009081526006602052604090205490565b61011861010f36600461037b565b50600054600191565b6040805192151583526020830191909152016100bc565b6100b261013d36600461037b565b60076020526000908152604090205481565b61016261015d366004610423565b61026a565b6040516001600160a01b0390911681526020016100bc565b610090610188366004610351565b61028a565b611234331461019b57600080fd5b60ff81106101a857600080fd5b600381116101b657806101b9565b60035b6001600160a01b0383166000818152600760209081526040918290209390935580519182529181018390527f62c1e066774519db9fe35767c15fc33df2f016675b7cc0c330ed185f286a2d52910160405180910390a15050565b3360009081526006602052604081208054859290610232908490610452565b90915550506001600160a01b0384166000908152600660205260408120805485929061025f90849061046b565b909155505050505050565b6001816005811061027a57600080fd5b01546001600160a01b0316905081565b6000818155338152600760205260408120546102a69083610452565b336000908152600660205260408120805492935083929091906102ca908490610452565b90915550506001600160a01b038316600090815260066020526040812080548392906102f790849061046b565b90915550506040516001600160a01b038416907f98eaee7299e9cbfa56cf530fd3a0c6dfa0ccddf4f837b8f025651ad9594647b390600090a2505050565b80356001600160a01b038116811461034c57600080fd5b919050565b6000806040838503121561036457600080fd5b61036d83610335565b946020939093013593505050565b60006020828403121561038d57600080fd5b61039682610335565b9392505050565b600080600080606085870312156103b357600080fd5b6103bc85610335565b93506020850135925060408501356001600160401b03808211156103df57600080fd5b818701915087601f8301126103f357600080fd5b81358181111561040257600080fd5b88602082850101111561041457600080fd5b95989497505060200194505050565b60006020828403121561043557600080fd5b5035919050565b634e487b7160e01b600052601160045260246000fd5b818103818111156104655761046561043c565b92915050565b808201808211156104655761046561043c56fea2646970667358221220a440e13b59754c558811d6e68a0f0a3220844d5b86b3ae2b600f3e005de37dde64736f6c63430008130033",
    "linkReferences": {}
  },
  "methodIdentifiers": {
    "addToWhitelist(address,uint256)": "214405fc",
    "administrators(uint256)": "d89d1510",
    "balanceOf(address)": "70a08231",
    "balances(address)": "27e235e3",
    "getPaymentStatus(address)": "888b2284",
    "transfer(address,uint256,string)": "56b8c724",
    "whiteTransfer(address,uint256)": "ea28d320",
    "whitelist(address)": "9b19251a"
  },
  "id": 17
}